:100000000C942A000C9447000C9447000C94470071
:100010000C9447000C9447000C9447000C94470044
:100020000C9447000C9447000C9447000C94470034
:100030000C9447000C94B2010C9447000C94F0010E
:100040000C9447000C9447000C9447000C94470014
:100050000C94470011241FBECFE5D8E0DEBFCDBF12
:1000600010E0A0E6B0E0E4EEF7E002C005900D92EB
:10007000A236B107D9F724E0A2E6B0E001C01D9294
:10008000A436B207E1F70E9449000C94F0030C94E7
:1000900000000E947D0078940E94AB00FDCFF89490
:1000A00020E030E040E85FE360916C0070916D000B
:1000B00080916E0090916F000E94620260936C00CC
:1000C00070936D0080936E0090936F001DBC1CBCFC
:1000D00088B7806188BF789420E030E040E751E441
:1000E00060916C0070916D0080916E0090916F0036
:1000F0000E944E030E94CE020895CF93DF9300D05A
:1001000000D01F92CDB7DEB783E38A8319821B82AA
:1001100088ED8C8386E88D83CE0101960E942802AB
:10012000F8941FBC1EBC84E08EBD84EF91E09BBDA3
:100130008ABD1DBC1CBC789480E687B986B1826CF0
:1001400086B9109261000F900F900F900F900F9052
:10015000DF91CF9108952F923F924F925F926F92CD
:100160007F928F929F92AF92BF92CF92DF92EF9247
:10017000FF920F931F93CF93DF93CDB7DEB72797EF
:100180000FB6F894DEBF0FBECDBF80916100813005
:10019000C9F120F0823009F4B3C0CBC008B604FE28
:1001A000FDCF80916B0080FD08C0E0916B00F0E016
:1001B000E057FC4F84E1808307C0E0916B00F0E0E2
:1001C000E057FC4F84E1808310916B000E944F0048
:1001D000E12FF0E0EE0FFF1FEE0FFF1FE059FF4F82
:1001E000608371838283938380916B008F5F8093A0
:1001F0006B0090916B0081E0983C08F480E0809364
:10020000610097C00F2EF0E9CF2EF3E0DF2EF02D26
:100210000F2EF0E7EF2EF0E0FF2EF02D0F2EF0E97D
:100220008F2EF3E09F2EF02D02E610E06894AA24B2
:10023000A6F86894662462F8712C0F2EF3E04F2E16
:10024000F02D512C212C312C0F2EFBE3BF2EF02D45
:10025000F801A082F60181916F014AE0BE016B5F57
:100260007F4F90E00E94BB038D81F80181838E81D6
:1002700082834AE0BE016F5F7F4FF70180819181E9
:100280000E94BB03F70181919191A191B1917F01EE
:10029000883EF3E09F07A105B105E0F5843691059E
:1002A000A105B105D0F50A97A105B105C8F521E072
:1002B000332D38C04D914193019682179307D4F3A3
:1002C000F801B6828AE0878368E070E0C8010E9486
:1002D00034020E9453028823E1F3FFE728E381E020
:1002E000F15020408040E1F700C00000E814F9041C
:1002F00009F0AECF61E070E080E690E00E94460237
:10030000109261008EE480936000F8941DBC1CBCC8
:1003100078940FC0262D372D05C0242D352D02C011
:1003200022E0322DDE011196E5E6F0E080E090E07B
:10033000C1CF27960FB6F894DEBF0FBECDBFDF91B9
:10034000CF911F910F91FF90EF90DF90CF90BF90D2
:10035000AF909F908F907F906F905F904F903F9065
:100360002F9008951F920F920FB60F9211242F9382
:100370003F934F935F938F939F93EF93FF93F894E3
:100380008CB1409158045091590420915A043091F5
:100390005B0442175307B0F48032A1F02091580457
:1003A00030915904E0915C04F0915D04E20FF31F79
:1003B0008083809158049091590401969093590438
:1003C000809358047894FF91EF919F918F915F9162
:1003D0004F913F912F910F900FBE0F901F90189546
:1003E0001F920F920FB60F9211242F933F938F936A
:1003F0009F93EF93FF93F89480915E0490915F0434
:10040000019690935F0480935E0420915E04309186
:100410005F0480916004909161042817390760F4AB
:1004200080915E0490915F04E0916204F091630416
:10043000E80FF91F80818CB97894FF91EF919F911B
:100440008F913F912F910F900FBE0F901F90189595
:10045000FC01808180BD818189B982818BB98381D2
:100460008AB9848180BD0895909363048093620467
:10047000709361046093600410925F0410925E04B4
:100480005D9BFECFFC0180818CB9089590935D0443
:1004900080935C0470935B0460935A041092590437
:1004A00010925804089540915E0450915F04209189
:1004B00060043091610481E04217530708F480E042
:1004C00008955058BB27AA270E9479020C94140360
:1004D0000E94060338F00E940D0320F039F49F3F7C
:1004E00019F426F40C9403030EF4E095E7FB0C9446
:1004F000FD02E92F0E94250358F3BA17620773071C
:100500008407950720F079F4A6F50C9447030EF4C0
:10051000E0950B2EBA2FA02D0B01B90190010C0113
:10052000CA01A0011124FF27591B99F0593F50F42B
:10053000503E68F11A16F040A22F232F342F442783
:10054000585FF3CF469537952795A795F04053957B
:10055000C9F77EF41F16BA0B620B730B840BBAF04B
:100560009150A1F0FF0FBB1F661F771F881FC2F7B6
:100570000EC0BA0F621F731F841F48F487957795CA
:100580006795B795F7959E3F08F0B0CF9395880F84
:1005900008F09927EE0F9795879508950E942D03EF
:1005A00088F09F5798F0B92F9927B751B0F0E1F034
:1005B000660F771F881F991F1AF0BA95C9F714C0E4
:1005C000B13091F00E944703B1E008950C944703C5
:1005D000672F782F8827B85F39F0B93FCCF386951D
:1005E00077956795B395D9F73EF49095809570957A
:1005F00061957F4F8F4F9F4F089597F99F6780E8D0
:1006000070E060E008959FEF80EC089500240A9464
:100610001616170618060906089500240A941216DD
:100620001306140605060895092E0394000C11F410
:10063000882352F0BB0F40F4BF2B11F460FF04C0BD
:100640006F5F7F4F8F4F9F4F089557FD9058440F16
:10065000551F59F05F3F71F04795880F97FB991F21
:1006600061F09F3F79F087950895121613061406DE
:10067000551FF2CF4695F1DF08C01616170618066B
:10068000991FF1CF86957105610508940895E89446
:10069000BB2766277727CB0197F908950E9461034E
:1006A0000C9414030E94060338F00E940D0320F0FE
:1006B000952311F00C94FD020C94030311240C9467
:1006C00048030E94250370F3959FC1F3950F50E0F6
:1006D000551F629FF001729FBB27F00DB11D639FF4
:1006E000AA27F00DB11DAA1F649F6627B00DA11D9A
:1006F000661F829F2227B00DA11D621F739FB00D40
:10070000A11D621F839FA00D611D221F749F3327AF
:10071000A00D611D231F849F600D211D822F762F48
:100720006A2F11249F5750409AF0F1F088234AF025
:10073000EE0FFF1FBB1F661F771F881F9150504091
:10074000A9F79E3F510580F00C94FD020C944803DC
:100750005F3FE4F3983ED4F3869577956795B79518
:10076000F795E7959F5FC1F7FE2B880F911D969532
:10077000879597F90895BB274A3031F4992322F4DD
:10078000BDE2909581959F4F0C94C703BB27FB0159
:100790005527AA27880F991FAA1FA41710F0A41B7A
:1007A00083955051B9F7A05DAA3308F0A95DA193D4
:1007B000009779F7B111B1931192CB010C94E0033A
:1007C000DC01FC01672F71917723E1F7329704C0B8
:1007D0007C916D9370836291AE17BF07C8F3089543
:0407E000F894FFCFBB
:0207E4004E01C4
:00000001FF
